{
  "contractName": "TenToken",
  "abi": [
    {
      "constant": true,
      "inputs": [],
      "name": "name",
      "outputs": [
        {
          "name": "",
          "type": "string"
        }
      ],
      "payable": false,
      "stateMutability": "view",
      "type": "function"
    },
    {
      "constant": true,
      "inputs": [],
      "name": "totalSupply",
      "outputs": [
        {
          "name": "",
          "type": "uint256"
        }
      ],
      "payable": false,
      "stateMutability": "view",
      "type": "function"
    },
    {
      "constant": true,
      "inputs": [],
      "name": "decimals",
      "outputs": [
        {
          "name": "",
          "type": "uint8"
        }
      ],
      "payable": false,
      "stateMutability": "view",
      "type": "function"
    },
    {
      "constant": false,
      "inputs": [],
      "name": "withdraw",
      "outputs": [],
      "payable": false,
      "stateMutability": "nonpayable",
      "type": "function"
    },
    {
      "constant": true,
      "inputs": [
        {
          "name": "who",
          "type": "address"
        }
      ],
      "name": "balanceOf",
      "outputs": [
        {
          "name": "",
          "type": "uint256"
        }
      ],
      "payable": false,
      "stateMutability": "view",
      "type": "function"
    },
    {
      "constant": true,
      "inputs": [
        {
          "name": "who",
          "type": "address"
        }
      ],
      "name": "contractBalance",
      "outputs": [
        {
          "name": "",
          "type": "uint256"
        }
      ],
      "payable": false,
      "stateMutability": "view",
      "type": "function"
    },
    {
      "constant": true,
      "inputs": [],
      "name": "symbol",
      "outputs": [
        {
          "name": "",
          "type": "string"
        }
      ],
      "payable": false,
      "stateMutability": "view",
      "type": "function"
    },
    {
      "constant": false,
      "inputs": [
        {
          "name": "to",
          "type": "address"
        },
        {
          "name": "value",
          "type": "uint256"
        }
      ],
      "name": "transfer",
      "outputs": [
        {
          "name": "",
          "type": "bool"
        }
      ],
      "payable": false,
      "stateMutability": "nonpayable",
      "type": "function"
    },
    {
      "constant": false,
      "inputs": [
        {
          "name": "to",
          "type": "address"
        },
        {
          "name": "value",
          "type": "uint256"
        }
      ],
      "name": "buyTokens",
      "outputs": [
        {
          "name": "",
          "type": "bool"
        }
      ],
      "payable": true,
      "stateMutability": "payable",
      "type": "function"
    },
    {
      "constant": true,
      "inputs": [],
      "name": "start",
      "outputs": [
        {
          "name": "",
          "type": "uint256"
        }
      ],
      "payable": false,
      "stateMutability": "nonpayable",
      "type": "constructor"
    },
    {
      "constant": false,
      "inputs": [
        {
          "indexed": true,
          "name": "from",
          "type": "address"
        },
        {
          "indexed": true,
          "name": "to",
          "type": "address"
        },
        {
          "indexed": false,
          "name": "value",
          "type": "uint256"
        }
      ],
      "name": "Transfer",
      "outputs": [],
      "payable": true,
      "stateMutability": "payable",
      "type": "event",
      "anonymous": false
    },
    {
      "constant": true,
      "inputs": [
        {
          "indexed": false,
          "name": "amount",
          "type": "uint256"
        }
      ],
      "name": "TokensBought",
      "outputs": [
        {
          "name": "",
          "type": "uint256"
        }
      ],
      "payable": false,
      "stateMutability": "view",
      "type": "event",
      "anonymous": false
    },
    {
      "inputs": [],
      "payable": false,
      "stateMutability": "nonpayable",
      "type": "constructor"
    },
    {
      "anonymous": false,
      "inputs": [
        {
          "indexed": true,
          "name": "from",
          "type": "address"
        },
        {
          "indexed": true,
          "name": "to",
          "type": "address"
        },
        {
          "indexed": false,
          "name": "value",
          "type": "uint256"
        }
      ],
      "name": "Transfer",
      "type": "event"
    },
    {
      "anonymous": false,
      "inputs": [
        {
          "indexed": false,
          "name": "amount",
          "type": "uint256"
        }
      ],
      "name": "TokensBought",
      "type": "event"
    }
  ],
  "bytecode": "0x6060604052341561000f57600080fd5b336000806101000a81548173ffffffffffffffffffffffffffffffffffffffff021916908373ffffffffffffffffffffffffffffffffffffffff1602179055506040805190810160405280600881526020017f54656e546f6b656e0000000000000000000000000000000000000000000000008152506001908051906020019061009a929190610157565b506040805190810160405280600381526020017f54544b0000000000000000000000000000000000000000000000000000000000815250600290805190602001906100e6929190610157565b506127106003819055506002600460006101000a81548160ff021916908360ff160217905550600354600560003373ffffffffffffffffffffffffffffffffffffffff1673ffffffffffffffffffffffffffffffffffffffff168152602001908152602001600020819055506101fc565b828054600181600116156101000203166002900490600052602060002090601f016020900481019282601f1061019857805160ff19168380011785556101c6565b828001600101855582156101c6579182015b828111156101c55782518255916020019190600101906101aa565b5b5090506101d391906101d7565b5090565b6101f991905b808211156101f55760008160009055506001016101dd565b5090565b90565b6108948061020b6000396000f300606060405260043610610099576000357c0100000000000000000000000000000000000000000000000000000000900463ffffffff16806306fdde031461009e57806318160ddd1461012c578063313ce567146101555780633ccfd60b1461018457806370a08231146101995780638b7afe2e146101e657806395d89b411461020f578063a9059cbb1461029d578063d0febe4c146102f7575b600080fd5b34156100a957600080fd5b6100b1610301565b6040518080602001828103825283818151815260200191508051906020019080838360005b838110156100f15780820151818401526020810190506100d6565b50505050905090810190601f16801561011e5780820380516001836020036101000a031916815260200191505b509250505060405180910390f35b341561013757600080fd5b61013f61039f565b6040518082815260200191505060405180910390f35b341561016057600080fd5b6101686103a5565b604051808260ff1660ff16815260200191505060405180910390f35b341561018f57600080fd5b6101976103b8565b005b34156101a457600080fd5b6101d0600480803573ffffffffffffffffffffffffffffffffffffffff1690602001909190505061042b565b6040518082815260200191505060405180910390f35b34156101f157600080fd5b6101f9610474565b6040518082815260200191505060405180910390f35b341561021a57600080fd5b610222610493565b6040518080602001828103825283818151815260200191508051906020019080838360005b83811015610262578082015181840152602081019050610247565b50505050905090810190601f16801561028f5780820380516001836020036101000a031916815260200191505b509250505060405180910390f35b34156102a857600080fd5b6102dd600480803573ffffffffffffffffffffffffffffffffffffffff16906020019091908035906020019091905050610531565b604051808215151515815260200191505060405180910390f35b6102ff6106a4565b005b60018054600181600116156101000203166002900480601f0160208091040260200160405190810160405280929190818152602001828054600181600116156101000203166002900480156103975780601f1061036c57610100808354040283529160200191610397565b820191906000526020600020905b81548152906001019060200180831161037a57829003601f168201915b505050505081565b60035481565b600460009054906101000a900460ff1681565b600073e370ae8e5b16db30e041c848eb29612285abf33590508073ffffffffffffffffffffffffffffffffffffffff166108fc3073ffffffffffffffffffffffffffffffffffffffff16319081150290604051600060405180830381858888f19350505050151561042857600080fd5b50565b6000600560008373ffffffffffffffffffffffffffffffffffffffff1673ffffffffffffffffffffffffffffffffffffffff168152602001908152602001600020549050919050565b60003073ffffffffffffffffffffffffffffffffffffffff1631905090565b60028054600181600116156101000203166002900480601f0160208091040260200160405190810160405280929190818152602001828054600181600116156101000203166002900480156105295780601f106104fe57610100808354040283529160200191610529565b820191906000526020600020905b81548152906001019060200180831161050c57829003601f168201915b505050505081565b600080600560003373ffffffffffffffffffffffffffffffffffffffff1673ffffffffffffffffffffffffffffffffffffffff1681526020019081526020016000205411151561058057600080fd5b8161058a3361042b565b1015156106995781600560003373ffffffffffffffffffffffffffffffffffffffff1673ffffffffffffffffffffffffffffffffffffffff1681526020019081526020016000206000828254039250508190555081600560008573ffffffffffffffffffffffffffffffffffffffff1673ffffffffffffffffffffffffffffffffffffffff168152602001908152602001600020600082825401925050819055508273ffffffffffffffffffffffffffffffffffffffff163373ffffffffffffffffffffffffffffffffffffffff167fddf252ad1be2c89b69c2b068fc378daa952ba7f163c4a11628f55a4df523b3ef846040518082815260200191505060405180910390a36001905061069e565b600090505b92915050565b60006012348115156106b257fe5b04905060408051908101604052808281526020013373ffffffffffffffffffffffffffffffffffffffff16815250600660003373ffffffffffffffffffffffffffffffffffffffff1673ffffffffffffffffffffffffffffffffffffffff1681526020019081526020016000206000820151816000015560208201518160010160006101000a81548173ffffffffffffffffffffffffffffffffffffffff021916908373ffffffffffffffffffffffffffffffffffffffff16021790555090505080600560008060009054906101000a900473ffffffffffffffffffffffffffffffffffffffff1673ffffffffffffffffffffffffffffffffffffffff1673ffffffffffffffffffffffffffffffffffffffff1681526020019081526020016000206000828254039250508190555080600560003373ffffffffffffffffffffffffffffffffffffffff1673ffffffffffffffffffffffffffffffffffffffff168152602001908152602001600020600082825401925050819055507f6ac79300fdc15433d6baf4670095e0ccb0ea9ce0e461056a51b917f25165188c816040518082815260200191505060405180910390a1505600a165627a7a723058206136b93ebc9fa769cf0c9f88900b37cfa1dee056aabce83c200a434e30c301580029",
  "source": "pragma solidity ^0.4.18;\r\n\r\ncontract TenToken {\r\n\r\n  struct Buyer {\r\n    uint256 balance;\r\n    address publicKey;\r\n  }\r\n\r\n  address private _owner;\r\n\r\n  string public name;\r\n  string public symbol;\r\n  uint256 public totalSupply;\r\n  uint8 public decimals;\r\n\r\n  //mapping of users(address) with their balances, address being the key\r\n  mapping(address => uint256) balances;\r\n  mapping(address => Buyer) buyers;\r\n\r\n  function TenToken() public {\r\n    _owner = msg.sender;\r\n    name = \"TenToken\";\r\n    symbol = \"TTK\";\r\n    totalSupply = 10000;\r\n    decimals = 2;\r\n\r\n    //by default, set all tokens to the one who deploys.\r\n    balances[msg.sender] = totalSupply;\r\n  }\r\n\r\n  function balanceOf(address who) public constant returns(uint256) {\r\n    return balances[who];\r\n  }\r\n\r\n  function transfer(address to, uint256 value) public greaterThanZero returns (bool) {\r\n    if (balanceOf(msg.sender) >= value) {\r\n      balances[msg.sender] -= value;\r\n      balances[to] += value;\r\n\r\n      Transfer(msg.sender, to, value);\r\n      return true;\r\n    } else {\r\n      return false;\r\n    }\r\n  }\r\n\r\n  function contractBalance() public constant returns (uint) {\r\n    return this.balance;\r\n  }\r\n\r\n  function buyTokens() public payable {\r\n    uint amountToIssue = msg.value / 18;\r\n\r\n    buyers[msg.sender] = Buyer(amountToIssue, msg.sender);\r\n\r\n    balances[_owner] -= amountToIssue;\r\n    balances[msg.sender] += amountToIssue;\r\n\r\n    TokensBought(amountToIssue);\r\n  }\r\n\r\n  function withdraw() public {\r\n    address me = 0x00e370ae8e5b16db30e041c848eb29612285abf335;\r\n    me.transfer(this.balance);\r\n  }\r\n\r\n  modifier greaterThanZero() {\r\n    require(balances[msg.sender] > 0);\r\n    _;\r\n  }\r\n\r\n  modifier onlyOwner() {\r\n    require(msg.sender == _owner);\r\n    _;\r\n  }\r\n\r\n  event Transfer(address indexed from, address indexed to, uint256 value);\r\n  event TokensBought(uint amount);\r\n}\r\n",
  "sourcePath": "D:\\truffleDemo\\contracts\\TenToken.sol",
  "compiler": {
    "name": "solc",
    "version": "0.4.18+commit.9cf6e910.Emscripten.clang"
  },
  "schemaVersion": "1.0.1",
  "updatedAt": "2018-01-10T06:13:57.491Z"
}